:101426004B313A00C7D0BBBBB1B3B9E200456E6AD7
:101436006F79206F285F296F200051513A32333976
:1014460034343733303800D3EFD2F4D0BEC6ACBF15
:10145600AAB7A2CFB5CDB300B9CCBCFEB0E6B1BE3B
:10146600003A566572322E303100D0BEC6ACD0CDB1
:10147600BAC5003A49534431373230003A495344E9
:1014860031373330003A49534431373430003A4922
:10149600534431373530003A4953443137363000FA
:1014A6003A495344313739300049534431373132A0
:1014B60030004953443137313530004953443137D0
:1014C60031383000495344313732313000495344C2
:1014D6003137323430003A00CEB4D6AA00D4CBD05D
:0614E600D0CAB1BCE40015
:1016EC00121D641218AE121647D28C750E00750FAF
:1016FC00087B807A00E4FDFCFF12178E1212541244
:10170C00112F20B21030B2FD121F817F307E751266
:10171C001FA9121F2D20B30530B3FDB28330051560
:10172C00C205750E00750F027B807A007D067C0069
:10173C00E4FF12178EE53314600F1460301460252B
:10174C002403703812198F80B67BFF7A147926E443
:10175C00FD7F30121B897BFF7A14792A7D187F302C
:10176C00121B41809A7BFF7A14793380067BFF7AB7
:10177C00147940E4FD7F30121B89808312198F028B
:02178C00170B39
:101254007BFF7A14794DE4FDFF121B417BFF7A1466
:10126400795EE4FD7F10121B417BFF7A1479677D60
:10127400407F10121B897BFF7A147970E4FD7F2074
:10128400121B41121EA5E52D12188812BC8012B43F
:101294009012D4A012CCA812C4B012ECC012E4C8AC
:1012A40012DCD01304E012FCE812F4F00000131373
:1012B4007BFF7A147979804E7BFF7A147982804699
:1012C4007BFF7A14798B803E7BFF7A147994803685
:1012D4007BFF7A14799D802E7BFF7A1479A6802671
:1012E4007BFF7A1479AF801E7BFF7A1479B880165D
:1012F4007BFF7A1479C1800E7BFF7A1479CA800649
:101304007BFF7A1479D37D407F20121B89801A7B5E
:10131400FF7A1479DC7D407F20121B897BFF7A14CD
:1013240079DE7D487F20121B417BFF7A1479E3E448
:10133400FD7F30121B417BFF7A1479DC7D407F30C6
:10134400121B897BFF7A1479DC7D587F30021B895C
:10198F007BFF7A1479E3E4FD7F30121B417BFF7AF2
:10199F001479DC7D407F30121B897BFF7A1479DC50
:1019AF007D587F30121B89E53675F00A84FB7D4820
:1019BF007F30121354E53675F00A84ABF07D507FFB
:1019CF0030121354E53475F00A84FB7D607F3012BA
:1019DF001354E53475F00A84ABF07D687F30021341
:0119EF0054A3
:101D6400758921759850E4F58A758C70758DE875C0
:101D74008BE8D2A9D2AFD28EC288C2A8121FBF7577
:091D8400B0FF75351975327D229E
:03000B00021AF6E0
:101AF600C0E0C0D0758A00758C70E5356020D5359C
:101B06001DB2900534E534D3943B400F753400057F
:101B160036E536D3943B4003753600753519E53204
:101B26006014D53211D20575327D0533E533D39471
:0B1B3600034003753300D0D0D0E03234
:0B1FA900EF1FAC0670011E4C70F6220A
:1015A100C287EFB40C0040030216449015B3F8282B
:1015B10028730215D70215DF0215E70215EF021590
:1015C100F70215FF02160702160F0216190216235B
:1015D10002162D0216377B197A017D1080367B7039
:1015E1007A017D1A80387BBB7A017D7180307BEE78
:1015F1007A017DBC80287BEE7A017DA080207BE191
:101601007A007DC9800E7BF47A017DE280067B1928
:101611007A017DF57C0080267B317A017D207C0179
:10162100801C7B5F7A017D327C0180127B5E7A01B6
:101631007D607C0180087B8A7A017D5F7C017F90DF
:06164100121D8DD287226C
:101EE1008F1D121EF27F307E75121FA9AF1D0215C4
:011EF100A14F
:10112F00209803021231859908E508B40903121EAD
:10113F00A5E508B44403121ECFE508B44003121FFF
:10114F002DE508B40403121F11E508B40503121EA0
:10115F008CE508B44303121F49E508B40103121FBD
:10116F00BFE508B40203121EF2E508B40303121F11
:10117F0003E508B40603121E56E508B40703121F51
:10118F001FE508B40803121E71E508B44103121ECF
:10119F00BAE508B44203121F3BE508B44503120039
:1011AF000AE508B46503121F57E508B44603121F7A
:1011BF0065E508B44703121F73E508B44803121F0F
:1011CF0081E508B44903121F8FE508B46003121DAF
:1011DF0038E508B480057F90121C58E508B4810DDE
:1011EF007F91121C58752B817F01121E39E508B4AF
:1011FF0082057F92121C58E50864657023C29830EF
:10120F0098FDAF99AD07ED7D00FCC2983098FDAF0A
:10121F0099EF4205E4C298C2877F65121DDAD28723
:10122F00C29830071F120003E4F508AF2A052AA859
:10123F0007E6F5993099FDC2990508E508D39402A0
:04124F0040E9C207A9
:011253002278
:021C5800A907DA
:101C5A00C2983098FDAF99AD07ED7D00FCC298306F
:101C6A0098FDAF99EF4205C2983098FDAF99AB073E
:101C7A00ED7B00FAC2983098FDAF99EF4203E4C2B7
:0A1C8A0098C287AF01121D8DD287AA
:011C9400222D
:0A1FBF00C2877F01121A4ED287225A
:101EF200C2877F02121A4ED287752B027F01021E01
:011F020039A5
:0E1F0300C2877D027C007F03121A52D2872211
:0E1F1100C2877D027C007F04121A52D2872202
:101E8C00C2877D037C007F05121A52D287AF2C8546
:091E9C002B2C8F2B7F03021E3951
:101D3800C2877D037C007F05121A52D287AF2CE53B
:101D48002C33333354F8FEE52BC41354074EF52CCB
:0C1D5800EFC4135407F52B7F03021E3963
:101E5600C2877D047C007F06121A52D287E52E5473
:0B1E660003852D2EF52D7F04021E3990
:0E1F1F00C2877D027C007F07121A52D28722F1
:101E7100C2877D047C007F08121A52D287E52E5456
:0B1E810003852D2EF52D7F04021E3975
:101EA500C2877D037C007F09121A52D287532DF811
:051EB5007F03021E394D
:0E1F2D00C2877D027C007F50121A52D287229A
:101EBA00C2877D027C007F51121A52D287752B414C
:051ECA007F01021E393A
:0E1F3B00C2877D027C007F52121A52D287228A
:0E1F4900C2877D027C007F53121A52D287227B
:101ECF00C2877D047C007F44121A52D2877F04029E
:021EDF001E39AA
:01000A0022D3
:0E1F5700C2877D007C047F65121DDAD28722CE
:0E1F6500C2877D027C007F46121A52D287226C
:0E1F7300C2877D027C007F47121A52D287225D
:0E1F8100C2877D027C007F48121A52D287224E
:0E1F8F00C2877D027C007F49121A52D287223F
:021E39008F090F
:101E3B00120003E4FFAE2A052AA806E6F5993099AD
:0A1E4B00FDC2990FEFC3950940EBAB
:011E5500226A
:07000300752122752A2B2252
:041A4E007D027C0099
:041A52008C098D0A64
:101A5600E4F50B8F22752123AF210521A807E4F6B3
:101A6600E50A24FFFFE50934FFFE050BC3E50B9FDE
:101A7600EE6480F874809840DF120003E4F50B12E0
:101A86001AA2AE2A052AA806A607050BC3E50B95DA
:0B1A96000AE5096480F874809840E4C1
:011AA1002222
:101DDA008F228D238C24120003E4F509121AA2AE75
:101DEA002A052AA806A6070509E509C3940340ECB3
:011DFA0022C6
:101D8D008F22E4F5238D248C258B268A27F52812A6
:101D9D000003F509121AA2AE2A052AA806A6070500
:081DAD0009E509D3940740EC9D
:011DB500220B
:081AA200AF210521A807E6FFB2
:021AAA008F0C9F
:101AAC00E4F50DF50EC2867F017E00121E1BAF0DF4
:101ABC00E50CA807088002C313D8FC30E004D285DB
:101ACC008002C285E50EC3133084064480F50E8077
:101ADC0002F50ED2867F017E00121E1B050DE50D50
:091AEC00D3940740C0C285AF0E7F
:011AF50022CE
:101E1B00C3EF9401EE648094804012E50FD39414C9
:0D1E2B005004050F80F5EF1F70E61E80E3E8
:011E38002287
:10000E003000310032003300340035003600370046
:10001E0038003900410042004300440045004600CC
:10002E005A00CFB5CDB3C6F4B6AFD6D0000000009F
:10003E00F800000000000000333000000040C078DF
:10004E0040C0784000043F04043F04040000708860
:10005E00FC08300000001820FF211E0000F008F000
:10006E0000E018000000211C031E211E0000F008F5
:10007E0088700000001E2123241927211010160E4F
:10008E000000000000000000000000000000000062
:10009E00E0180402000000000718204000000204CF
:1000AE0018E00000000040201807000000404080CB
:1000BE00F0804040000202010F0102020000000029
:1000CE00F0000000000101011F010101000000000D
:1000DE00000000000000010101010101010000000B
:1000EE000000000000808080808080808000000002
:1000FE000080601804006018060100000000E01087
:10010E00080810E000000F102020100F0000101043
:10011E00F8000000000020203F20200000007008A2
:10012E000808887000003028242221300000300892
:10013E0088884830000018202020110E000000C0D2
:10014E002010F8000000070424243F240000F808C3
:10015E0088880808000019212020110E0000E010E8
:10016E008888180000000F112020110E000038089A
:10017E0008C83808000000003F000000000070882A
:10018E000808887000001C222121221C0000E010AB
:10019E00080810E0000000312222110F00000000BC
:1001AE00C0C0000000000000303000000000000061
:1001BE008000000000000080600000000000008051
:1001CE0040201008000001020408102000404040AA
:1001DE0040404040000404040404040400000810DD
:1001EE00204080000000201008040201000070482A
:1001FE00080808F0000000003036010000C030C8CA
:10020E0028E810E0000718272423140B000000C074
:10021E0038E0000000203C23020227382008F8882E
:10022E008888700000203F202020110E00C030086A
:10023E000808083800071820202010080008F808C1
:10024E00080810E000203F202020100F0008F8883A
:10025E0088E8081000203F20202320180008F88886
:10026E0088E8081000203F200003000000C030087E
:10027E00080838000007182020221E020008F8087F
:10028E00000008F808203F210101213F2000080846
:10029E00F8080800000020203F2020000000000881
:1002AE0008F8080800C08080807F00000008F888E9
:1002BE00C028180800203F20012638200008F80822
:1002CE000000000000203F20202020300008F8F819
:1002DE0000F8F80800203F003F003F200008F830EB
:1002EE00C00008F808203F200007183F00E0100863
:1002FE00080810E0000F10202020100F0008F8084A
:10030E00080808F000203F210101010000E010085C
:10031E00080810E0000F18242438504F0008F88801
:10032E008888887000203F2000030C3020007088E1
:10033E0008080838000038202121221C001808085F
:10034E00F8080818000000203F2000000008F808F8
:10035E00000008F808001F202020201F00087888C1
:10036E000000C83808000007380E010000F8080029
:10037E00F80008F800033C0700073C030008186863
:10038E00808068180820302C03032C30200838C8D1
:10039E0000C83808000000203F20000000100808A8
:1003AE0008C8380800203826212020180000000038
:1003BE00FE020202000000007F40404000000202E8
:1003CE0002FE000000004040407F000000000004DC
:1003DE000202020400000000000000000000008085
:1003EE0080808000000019242222223F2008F8007D
:1003FE008080000000003F112020110E0000000040
:10040E008080800000000E112020201100000000CE
:10041E00808088F800000E112020103F2000008000
:10042E008080800000001F22222222130000808084
:10043E00F0888888180020203F20200000000080CF
:10044E008080808000006B94949493600008F80084
:10045E008080800000203F210000203F20008098F7
:10046E0098000000000020203F2020000000000027
:10047E00809898000000C08080807F000008F800FF
:10048E000080808000203F24022D302000000808CC
:10049E00F8000000000020203F2020000080808017
:1004AE008080808000203F20003F20003F80800021
:1004BE008080800000203F210000203F200000802F
:1004CE008080800000001F202020201F00808000E0
:1004DE00808000000080FFA12020110E000000008F
:1004EE008080808000000E112020A0FF8080808000
:1004FE00008080800020203F21200001000000802D
:10050E008080808000003324242424190000808001
:10051E00E0808000000000001F202000008080008E
:10052E000000808000001F202020103F208080804F
:10053E00000080808000010E3008060100808000DF
:10054E0080008080800F300C030C300F0000808004
:10055E0000808080000020312E0E312000808080AF
:10056E00000080808080818E7018060100008080DF
:10057E0080808080000021302C222130000000007D
:10058E0000807C020200000000003F40400000009E
:10059E0000FF00000000000000FF0000000002024B
:1005AE007C800000000040403F000000000006017B
:1005BE000102020404000000000000000000000020
:1005CE0000000000000000003030300000000C3051
:1005DE00C000000000000000010638C000000282CA
:1005EE009292DAFEB6B293D9C981010000001018BA
:1005FE000C0612303F1F02060C191900002030BCE9
:10060E00EF7B1844E4F55FCEE466460400091B1B3D
:10061E000D2525301F0F001F3F2038380040424265
:10062E0042FEFE424242FEFE436362400020203004
:10063E00180F070000003F3F00000000000808F8F8
:10064E00FF0FF8F8303C2F23283870600020311B44
:10065E000E0E1B113F3F1111113F3F00000004040D
:10066E00E4E40404FCFC8484C4C686040020202038
:10067E003F3F20203F3F20202030302000203818E0
:10068E000AEEECA8AFAFA8ECEE2A38180000000076
:10069E001E1E02023F3F02121E1E0000000888C9E5
:1006AE00EFFED86424FCFC0404FEFE0400010100ED
:1006BE003F3F21311C0F0310303F1F000080C060F0
:1006CE00F8FF070000FFFF60301808000000000070
:1006DE003F3F0202031F3F2020203C3C000808FF42
:1006EE00FFC868242CFDF7363C2C24200011313F26
:1006FE001F212125371F091D17333101000000006E
:10070E00000282E67CF8E0000000000000101018E5
:10071E000C060301000003070C181010002021E73F
:10072E00E6101012D2F23292931312100010180F1C
:10073E000F1812372722222223272620001098CCAA
:10074E00E7FB3822222222E2E333322000010100AD
:10075E003F3F00000010303F1F0000000000FCFC77
:10076E0044FCFC0848C888FFFF08080800001F1F4B
:10077E00040F0F000011313F1F0000000000FCFDB0
:10078E000706F2F29292F2F202FFFF0200003F3FE2
:10079E000000070704040717303F1F0000404060A9
:1007AE007058CEC640434FDCF06040400000202021
:1007BE0030180F071030301F0F000000001414D433
:1007CE00FEFF93D2F838FFFF08187060000407038D
:1007DE003F3F20213110190D06030100000000FCDF
:1007EE00FC242425272624243E3E04000020301F0E
:1007FE000F3F3F11111111113F3F00000020242423
:10080E00E4E424243010FFFF10F8F81000040E0F5B
:10081E00050427371C0E0711303F1F000000F8F8A3
:10082E00080808FFFF080808FCFC0800000001018A
:10083E000101013F3F010101010100000004040418
:10084E0004C4DF1F44C49F1F848606040000080FE3
:10085E00071F3F20202121203C3D070600000000FD
:10086E00FEFE9090909F9F90101818100020301848
:10087E000F07000000003F3F000000000000129232
:10088E00FE7E12FEFE127EFE80FFFF00000021257E
:10089E00242424253F3E242425353020004040408A
:1008AE005EDED2525252525F5F4240400000000064
:1008BE00020303113121311F0F000000000000223E
:1008CE00AAAA2AEAEA2A2A2ABFBF02000020203258
:1008DE0013190E0703060E0B1930301000202424B6
:1008EE00E4E424243010FFFF10F8F81000040E0F7B
:1008FE00050427371C0E0711303F1F00002021E78B
:10090E00E6829292F2FE9E92F2F383820000001F24
:10091E001F0C043E3E1212123E3E000000404444A4
:10092E00444C7C7547667C5C466664400000000063
:10093E003F3F15151515153F3F0000000000181E0E
:10094E001690FFFFD0505157D6D8181000203038CF
:10095E002E2731111B0E0E1B113030100008C8FF50
:10096E00FFC888FCFCD4D612F3F302000003033F49
:10097E003F20383F371B0F0F1B3030100000FEFE9C
:10098E0012D2D2527E7ED2D212FFFF0200003F3F21
:10099E001017171414141717103F3F00004060F083
:1009AE00FC4F633C1C10FFFF101010000000003FB6
:1009BE003F01010101013F3F010101010000FEFE67
:1009CE009F9F9010FCFCD49693F3720000303F0F63
:1009DE00003F3F1C2F33190F0F393010000008084D
:1009EE000888C868FFFF68C8880C0C080004040655
:1009FE00070504043F3F04040507060400004044B5
:100A0E00444444FFFFC4444646646040001010183E
:100A1E000C06033F3F0103060C18180800A0B09CFB
:100A2E008FFBF88888F8F80808FCFC0800203018BE
:100A3E000C07071C181F1F08081F1F00002020FE90
:100A4E00FE10101404FCFC0404FEFE040000000F53
:100A5E000F2C361A0E071130301F0F0000080888B1
:100A6E00FFFF58F8EF27F4FC2CE0E00000011131F5
:100A7E003F3F22331B0E070F1E332322001012128C
:100A8E00DACA5F5F404F5FD4D6121A18000000001A
:100A9E003F3F05050515353F1F000000004040444F
:100AAE004C58D0FF7FC0D0584C44404000202030DE
:100ABE00180C0703001F3F202020383800CFB5CD7B
:100ACE00B3BFAACABCD5FDB3A3B3F5BBAFBDD3C8E4
:100ADE00EBD4CBD0D0CAB1BCE4B7D6C3EBC6F4B618
:100AEE00AFD6D0D0BEC6ACD0CDBAC5C1E9B6AFD3A5
:100AFE00EFD2F4B7A2B0E5B9CCBCFEB0E6B1BECE33
:100B0E00B4D6AAC7D0BBBBB1B3B9E200212324250A
:100B1E00262728292A2B2D5F2F30313233343536B4
:100B2E003738393A3B3C3D3E3F40414243444546CF
:100B3E004748494A4B4C4D4E4F50515253545556BF
:100B4E005758595A5B5D5E61626364656667686992
:100B5E006A6B6C6D6E6F707172737475767778796F
:100B6E007A7B7C7D7E2E00000000000000000001DC
:100B7E000767E7EECECCDCD898B8B0B07060606096
:100B8E00E0E0E0E0C0000000000000000000008097
:100B9E00808080808080C0E0C0C0000000FEFEFE2D
:100BAE00FE868080E0E0C0800000000000000000B3
:100BBE0000040ECCECEC0C0D1DFDFDF9FBBB1B1B5C
:100BCE009BDBDBFFFFFFD8000000000000183B3B63
:100BDE003BBBFBFBF9F9F9F999191C1E1E1F07FF08
:100BEE00FFFF3F030301FFFFFF00000000000000B6
:100BFE000000003C3E1F1FC7E0F8FF3F1F07070F16
:100C0E001F1F3F3B7979707070F070707000000C90
:100C1E001E1E1F1F0F0D0C0C8C8FCFDFFFFEFC78DE
:100C2E007F3F9F83000000FEFFFFFF0000000000DB
:100C3E000000C0E0F0783C1E0F070301000000002A
:100C4E000000000000000000000000000000000096
:100C5E000000000000000000000001010101010081
:0F0C6E000000000003070F3E3E3F1F0F03000072
:101DFB00C282D2817FFAEFC39401401343A09000BB
:0F1E0B0000D2807E0AAD061EED70FAC280000084
:011E1A0022A5
:061C1800E4FB7D017F01E9
:041C1E00AC05AA0760
:101C2200121DFBEB6006D282C2818004C282C28195
:101C3200D2808518A0BA0102D296BC0102D2977F47
:101C420014AE071FEE70FAC2800000BA0102C296FB
:051C5200BC0102C29775
:011C5700226A
:0B1DB600B203A20392047847E6F51484
:101DC10030040A851418E4FBFD7F0180088514188E
:091DD100E4FB7D01FF121C1E223F
:040F1E007D3F7F385C
:020F22008B0B37
:100F2400850E12850F13EF131313541FFE44B87864
:100F340037F6EF5407783BF6ED131313541FC39E93
:100F4400783DF6E50BC39440400BE50B24C078389C
:100F5400F6C20080067838A60BD200783874402692
:100F6400F618E6FFD394BF4003021026A2009201B4
:100F7400A20192048F14121DC108E6FF08F6EF24A3
:100F8400C008F6783FA60B783FE6D3950C400302E1
:100F94001026300118783AE606B44011B2011876EA
:100FA40040A20192047837E6F514121DC1E4783C9E
:100FB400F6E51114603014603524027037AB0D056A
:100FC4000FE50FAA0E7002050E14F9121830FF78FF
:100FD4003BE6FEEFA806088002C333D8FC1218765D
:100FE400783C46F6800E783CE65510F68006783C50
:100FF400E64510F6A20192047839E606F514121DAE
:10100400C1783CE630010AF5187B01E4FD7F0180DC
:1010140008F5187B017D01E4FF121C1E783F0602CF
:101024000F8B783DE6700302112E783DE6167003AF
:1010340002112E783706E6FFD394BF400302112E27
:10104400A2009201A20192048F14121DC17838E605
:10105400FF08F6EF24C008F6783FA60B783FE6D3E6
:10106400950C50C6300118783AE606B44011B20126
:10107400187640A20192047837E6F514121DC1E4F3
:10108400783CF6E51114606614606B2402706D05FB
:1010940013E513AE127002051214F5828E83E493E5
:1010A400FF783BE6FEC374089EFDEFA805088002A6
:1010B400C313D8FC783EF618E6D394015003EE70BF
:1010C40024AB0D050FE50FAA0E7002050E14F912DC
:1010D4001830FF783BE6FEEFA806088002C333D839
:1010E400FC783C46F6783CE6793E47F6800E783C40
:1010F400E65510F68006783CE64510F6A201920407
:101104007839E606F514121DC1783CE630010AF57B
:10111400187B01E4FD7F018008F5187B017D01E463
:0A112400FF121C1E783F0602106047
:01112E00229E
:060C7D008B0F8A108911A3
:100C8300E4784CF6EF131313541F44B87847F6EF88
:100C93005407784AF6EDC39440400AED24C07848DF
:100CA300F6C20280067848A605D202784874402628
:100CB300F6EF540F6004D2018002C201784B30007A
:100CC300047610800276087847E6FFD394BF40038A
:100CD300020DA1A2029203A20392048F14121DC15A
:100CE300A203920408E6F514121DC1E624C0794953
:100CF300F7E4784DF6784DE6FFC3784B9640030250
:100D03000DA1AB0FAA10A911121830FEC374081855
:100D130096FDEEA805088002C313D8FCFE74372F96
:100D2300F8A6063003147849E606B4400D121DB642
:100D3300A2039204751440121DC130032DAB0F059D
:100D430011E511AA107002051014F9121830FF787A
:100D53004AE6FEEFA806088002C333D8FC784C4667
:100D6300F5187B01E4FD7F01802BAB0F0511E51125
:100D7300AA107002051014F9121830FF784AE6FE23
:100D8300EFA806088002C333D8FC784C46F5187BDD
:100D9300017D01E4FF121C1E784D06020CF8784712
:100DA30006E6FFD394BF4003020E43A2029203A2BE
:100DB3000392048F14121DC1A203920408E6F514D2
:100DC300121DC1E624C07949F7E4784DF6784DE663
:100DD300FFC3784B96506974372FF8C000E6FFAB1A
:100DE3000F0511E511AA107002051014F91218303D
:100DF300FE784AE6FDEEA805088002C333D8FC4F0F
:100E0300D000F63003147849E606B4400D121DB63F
:100E1300A2039204751440121DC1784DE62437F9DC
:100E2300E7184630030AF5187B01E4FD7F018008CB
:100E3300F5187B017D01E4FF121C1E784D06808DA1
:100E4300784706E6FFD394BF4003020F1D2001033A
:100E5300020F1DA2029203A20392048F14121DC15A
:100E6300A203920408E6F514121DC1784BE6FFC3F2
:100E7300E49FFFE49400FEEF2511F511EE3510F524
:100E8300107848E624C07949F7E4784DF6794DE7C0
:100E9300C3784B964003020F1D3003147849E606CE
:100EA300B4400D121DB6A2039204751440121DC165
:100EB300300330AB0F0511E511AA107002051014B1
:100EC300F9121830FFC37408784A96FEEFA8060893
:100ED3008002C313D8FC784C46F5187B01E4FD7FF0
:100EE30001802EAB0F0511E511AA10700205101435
:100EF300F9121830FFC37408784A96FEEFA8060863
:100F03008002C313D8FC784C46F5187B017D01E4BD
:0A0F1300FF121C1E784D06020E901E
:010F1D0022B1
:061D09008B0F8A10891106
:101D0F00E4FFEF7C007BFF241AF9EC340BFA121876
:101D1F0030FE6012F512AB0FAA10A911121830B5D0
:081D2F000601220F80DC7FFF9A
:011D37002289
:06192A008B0E8A0F8910EC
:10193000E47837F67BFF7A0A79CB7837E6FF75F0E3
:1019400002A4F58285F0831218496040AB0EAA0FFD
:10195000A910121830FEEF25E024CBF582E4340AFA
:10196000F583E493B5061C900001121849FE783700
:10197000E6FF25E024CCF582E4340AF583E493B550
:0E198000060122783706E6C394FA40A87FFFDE
:01198E002236
:0A1B41008F098D0A8B0B8A0C890DA9
:101B4B00AB0BAA0CA90D121830603212192AEFF444
:101B5B00602BEF75F020A47BFF24EBF9740535F0B7
:101B6B00FAD200AD0AAF09120C7D7402250DF50DEA
:0D1B7B00E4350CF50C7410250AF50A80C342
:011B8800223A
:0A1B89008F0A8D0B8B0C8A0D890E5C
:101B9300AB0CAA0DA90E1218306032121D09EFF416
:101BA3006018EF75F010A4243BF9740035F0FA7B4C
:101BB300FFC200AD0BAF0A120C7D7401250EF50EAA
:0D1BC300E4350DF50D7408250BF50B80C3FE
:011BD00022F2
:101354008F088D09EBB41000400302141890136831
:10136400F82828730213980213A00213A80213B0DA
:101374000213B80213C00213C80213D00213D80216
:1013840013E00213E80213F00213F802140002142B
:10139400080214107BFF7A00790E807E7BFF7A00AE
:1013A400791080767BFF7A007912806E7BFF7A0059
:1013B400791480667BFF7A007916805E7BFF7A0061
:1013C400791880567BFF7A00791A804E7BFF7A0069
:1013D400791C80467BFF7A00791E803E7BFF7A0071
:1013E400792080367BFF7A007922802E7BFF7A0079
:1013F400792480267BFF7A007926801E7BFF7A0081
:10140400792880167BFF7A00792A800E7BFF7A0088
:10141400792C80067BFF7A00792EAD09AF08121B68
:0214240089221B
:041BD1008F09A905CA
:101BD5007518C0121C18E47838F67838E6FFC394F7
:101BE50008502FEF24B8F518121C18751840121C50
:101BF5001AE418F67837E6C3944050118509187B26
:101C050001121C1A8918121C1A060680E778380674
:021C150080C885
:011C170022AA
:0B1FB400EF1FAC0670011E4C70F622FF
:10164700E4FDFF121BD1750C60750DFF750E0B7550
:101657000F75E4F510F5117B1F7D1FFF120F227B1D
:10166700FF7A0079307D187F24121B41750C0875AD
:101677000D00750E00750F007510FF7511027B08C0
:10168700120F1E750C76750D00750E00750F00751F
:1016970010817511027B09120F1E750C77750D00ED
:1016A700750E00750F007510FF7511027B77120F0D
:1016B7001E750809E508D394755029E5082403F534
:1016C7000C750D00750E00750F007510FF75110272
:1016D700AB08120F1E7F107E27121FB47404250853
:0416E700F50880D0B2
:0116EB0022DC
:1018AE00750805AF081508EF70F9121C95EF700258
:1018BE00F508D296C2977D3EE4FF1214ECC296D282
:1018CE00977D3EE4FF1214EC750E00750F087B80B9
:1018DE007A00E4FDFCFF12178ED296C2977DB8E413
:1018EE00FF1214EC7D40E4FF1214EC7D3FE4FF1276
:1018FE0014EC7DC0E4FF1214ECC296D2977DB8E4CE
:10190E00FF1214EC7D40E4FF1214EC7D3FE4FF1255
:0B191E0014EC7DC0E4FF1214ECC29733
:01192900229B
:0A178E008F098C0A8D0B8A0C8B0D5D
:10179800D3E50D947FE50C648094804006750C00B9
:1017A800750D7FE509D3943F4015C296D297E50D94
:1017B800950904F51074C02509F509E5108019C3C9
:1017C800E50D9440E50C64809480501DD296C29734
:1017D800C3E50D950904F510FB7A00850E16850FF3
:1017E80017AD0BAC0AAF098037D296C297C37440C5
:1017F8009509FBE49400FA850E16850F17AD0BAC1E
:101808000AAF091219F0C296D297E50D24C1FBE57B
:101818000C34FFFA850E16850F17AD0BAC0AE4FFE2
:071828001219F0C296C297ED
:01182F002296
:0A19F0008F118C128D138A148B15D1
:1019FA00E4F519C3E5199517E5166480F87480981B
:101A0A005041E51324B8F518FDE4FF1214ECE51172
:101A1A002440F518FDE4FF1214ECE4F518C3E518A8
:101A2A009515E5146480F8748098500BE4FD7F02E4
:101A3A001214EC051880E60513E513700205120569
:031A4A001980B050
:011A4D002276
:101C9500E4F50AE4F509D296C297121CD2EFD39463
:101CA5007F4003750902C296D297121CD2EFD394D6
:101CB5007F400674042509F509E5097004C297807B
:0C1CC50009050AE50AC3940340C9AF09F1
:011CD10022F0
:0414EC008F1A8D1BAB
:1014F000E51A14604014604414607624036003020B
:101500001597121CD28F1AC282C281851BA0751C2E
:1015100003AF1C151CEF70F9D280751C02AF1C15AF
:101520001CEF70F9751C06AF1C151CEF70F9C2801A
:10153000851A1B8065121CD28F1B805E121CD28FF5
:101540001AD282C281851BA0751C03AF1C151CEF2B
:1015500070F9D280751C02AF1C151CEF70F9751C58
:1015600006AF1C151CEF70F9C280E51A04F51B804C
:1015700029121CD28F1AD282D281751C03AF1C157E
:101580001CEF70F9D280751C06AF1C151CEF70F9AA
:1015900085A01BC2808003751BEEC282D281AF1B67
:0115A0002228
:101CD200C280C282D281E4FF43A09000D2807E0201
:101CE200AD061EED70FA20A70720A404AFA0801451
:101CF200C280E4F5A07E02AD061EED70FA0FEFC3BE
:061D020094FA40D4C280F7
:011D080022B8
:03000000021F9D3F
:0C1F9D00787FE4F6D8FD75814D0216EC4B
:10183000BB010689828A83E0225002E722BBFE02B6
:09184000E32289828A83E49322E9
:10184900BB010CE58229F582E5833AF583E0225054
:1018590006E92582F8E622BBFE06E92582F8E2229E
:0D186900E58229F582E5833AF583E49322B8
:10187600BB010689828A83F0225002F722BBFE0151
:02188600F3224B
:10188800D083D082F8E4937012740193700DA3A3EF
:1018980093F8740193F5828883E473740293686003
:0618A800EFA3A3A380DF03
:00000001FF
