:0300000002050BEB
:0C050B00787FE4F6D8FD7581220203C958
:1003C90012030F12000E3000FAC2001204EF7F3040
:0A03D9007E7512051712049B80E9DF
:10030F00758921759850E4F58A758C70758DE8752F
:10031F008BE8D2A9D2AFD28CD28EC288D2A81205C6
:08032F002275B0FF75221922AE
:03000300020006F2
:03000600D20032F3
:03000B000203FCF1
:1003FC00C0E0758A00758C70E5226008D52205B2C4
:07040C0090752219D0E032C7
:0B051700EF1FAC0670011E4C70F622B6
:10013300C287EFB40C0040030201D2900145F828B6
:10014300287302016902017102017902017D020132
:100153008502018D02019502019D0201A70201B1F1
:100163000201BB0201C57BBC7A007D1080327B5E3D
:100173007A017DBD802A7BBF804A7B9F7A017D3CCB
:1001830080287BEE7A017DA080207BE17A007DC907
:10019300800E7BF47A017DE280067B197A017DF57E
:1001A3007C0080267B317A017D207C01801C7B5F73
:1001B3007A017D327C0180127B5E7A017D607C0155
:1001C30080087B8A7A017D5F7C017F901202E6D2F0
:0201D300872281
:10044F008F211204607F307E75120517AF210201D4
:01045F003369
:10000E00209803020110859918E518B4090312040B
:10001E0013E518B4440312043DE518B4400312046A
:10002E009BE518B4040312047FE518B4050312030C
:10003E00E3E518B443031204B7E518B4010312053F
:10004E0022E518B40203120460E518B40303120487
:10005E0071E518B40603120393E518B407031204EE
:10006E008DE518B408031203AEE518B4410312046B
:10007E0028E518B442031204A9E518B4450312008A
:10008E0009E518B465031204C5E518B44603120455
:10009E00D3E518B447031204E1E518B4480312047B
:1000AE00EFE518B449031204FDE518B4600312021B
:1000BE00BAE518B480057F9012027DE518B4810D63
:1000CE007F9112027D7511817F01120376E518B4BE
:1000DE0082057F9212027DE51864657023C2983006
:1000EE0098FDAF99AD07ED7D00FCC2983098FDAF3D
:1000FE0099EF4205E4C298C2877F65120337D28713
:10010E00C29830011F12052CE4F518AF100510A887
:10011E0007E6F5993099FDC2990518E518D39402B2
:04012E0040E9C201E1
:0101320022AA
:02027D00A907CF
:10027F00C2983098FDAF99AD07ED7D00FCC2983064
:10028F0098FDAF99EF4205C2983098FDAF99AB0733
:10029F00ED7B00FAC2983098FDAF99EF4203E4C2AC
:0A02AF0098C287AF011202E6D28761
:0102B9002222
:0A052200C2877F011201D5D28722A3
:10046000C2877F021201D5D2877511027F01020374
:010470007615
:0E047100C2877D027C007F031201D9D2872250
:0E047F00C2877D027C007F041201D9D2872241
:1003E300C2877D037C007F051201D9D287AF1285B6
:0903F30011128F117F0302037641
:1002BA00C2877D037C007F051201D9D287AF12E580
:1002CA001233333354F8FEE511C41354074EF512B2
:0C02DA00EFC4135407F5117F03020376F4
:10039300C2877D047C007F061201D9D287E51454FD
:0B03A30003851314F5137F040203769A
:0E048D00C2877D027C007F071201D9D2872230
:1003AE00C2877D047C007F081201D9D287E51454E0
:0B03BE0003851314F5137F040203767F
:10041300C2877D037C007F091201D9D2875313F869
:050423007F03020376D7
:0E049B00C2877D027C007F501201D9D28722D9
:10042800C2877D027C007F511201D9D287751141A4
:050438007F01020376C4
:0E04A900C2877D027C007F521201D9D28722C9
:0E04B700C2877D027C007F531201D9D28722BA
:10043D00C2877D047C007F441201D9D2877F0402DC
:02044D00037634
:0100090022D4
:0E04C500C2877D007C047F65120337D2872238
:0E04D300C2877D027C007F461201D9D28722AB
:0E04E100C2877D027C007F471201D9D287229C
:0E04EF00C2877D027C007F481201D9D287228D
:0E04FD00C2877D027C007F491201D9D287227E
:020376008F19DD
:1003780012052CE4FFAE100510A806E6F599309991
:0A038800FDC2990FEFC3951940EB79
:010392002248
:07052C00750809751011228A
:0401D5007D027C002B
:0401D9008C198D1AD6
:1001DD00E4F51B8F0975080AAF080508A807E4F6B2
:1001ED00E51A24FFFFE51934FFFE051BC3E51B9F30
:1001FD00EE6480F874809840DF12052CE4F51B1234
:10020D000229AE100510A806A607051BC3E51B9510
:0B021D001AE5196480F874809840E432
:0102280022B3
:100337008F098D0A8C0B12052CE4F519120229AED0
:10034700100510A806A6070519E519C3940340EC84
:010357002283
:1002E6008F09E4F50A8D0B8C0C8B0D8A0EF50F1217
:1002F600052CF519120229AE100510A806A6070549
:0803060019E519D3940740EC3E
:01030E0022CC
:08022900AF080508A807E6FF75
:020231008F1C20
:10023300E4F51DF51EC2867F017E00120358AF1D33
:10024300E51CA807088002C313D8FC30E004D2855C
:100253008002C285E51EC3133084064480F51E80E8
:1002630002F51ED2867F017E00120358051DE51D8F
:09027300D3940740C0C285AF1E00
:01027C00225F
:10035800C3EF9401EE648094804012E51FD3941497
:0D0368005004051F80F5EF1F70E61E80E3B6
:010375002265
:00000001FF
